{
  "_format": "hh-sol-artifact-1",
  "contractName": "MyNFT",
  "sourceName": "contracts/MyNFT.sol",
  "abi": [
    {
      "inputs": [],
      "stateMutability": "nonpayable",
      "type": "constructor"
    },
    {
      "anonymous": false,
      "inputs": [
        {
          "indexed": true,
          "internalType": "address",
          "name": "owner",
          "type": "address"
        },
        {
          "indexed": true,
          "internalType": "address",
          "name": "approved",
          "type": "address"
        },
        {
          "indexed": true,
          "internalType": "uint256",
          "name": "tokenId",
          "type": "uint256"
        }
      ],
      "name": "Approval",
      "type": "event"
    },
    {
      "anonymous": false,
      "inputs": [
        {
          "indexed": true,
          "internalType": "address",
          "name": "owner",
          "type": "address"
        },
        {
          "indexed": true,
          "internalType": "address",
          "name": "operator",
          "type": "address"
        },
        {
          "indexed": false,
          "internalType": "bool",
          "name": "approved",
          "type": "bool"
        }
      ],
      "name": "ApprovalForAll",
      "type": "event"
    },
    {
      "anonymous": false,
      "inputs": [
        {
          "indexed": true,
          "internalType": "address",
          "name": "previousOwner",
          "type": "address"
        },
        {
          "indexed": true,
          "internalType": "address",
          "name": "newOwner",
          "type": "address"
        }
      ],
      "name": "OwnershipTransferred",
      "type": "event"
    },
    {
      "anonymous": false,
      "inputs": [
        {
          "indexed": true,
          "internalType": "address",
          "name": "from",
          "type": "address"
        },
        {
          "indexed": true,
          "internalType": "address",
          "name": "to",
          "type": "address"
        },
        {
          "indexed": true,
          "internalType": "uint256",
          "name": "tokenId",
          "type": "uint256"
        }
      ],
      "name": "Transfer",
      "type": "event"
    },
    {
      "inputs": [
        {
          "internalType": "address",
          "name": "to",
          "type": "address"
        },
        {
          "internalType": "uint256",
          "name": "tokenId",
          "type": "uint256"
        }
      ],
      "name": "approve",
      "outputs": [],
      "stateMutability": "nonpayable",
      "type": "function"
    },
    {
      "inputs": [
        {
          "internalType": "address",
          "name": "player",
          "type": "address"
        },
        {
          "internalType": "string",
          "name": "tokenURI",
          "type": "string"
        }
      ],
      "name": "awardItem",
      "outputs": [
        {
          "internalType": "uint256",
          "name": "",
          "type": "uint256"
        }
      ],
      "stateMutability": "nonpayable",
      "type": "function"
    },
    {
      "inputs": [
        {
          "internalType": "address",
          "name": "owner",
          "type": "address"
        }
      ],
      "name": "balanceOf",
      "outputs": [
        {
          "internalType": "uint256",
          "name": "",
          "type": "uint256"
        }
      ],
      "stateMutability": "view",
      "type": "function"
    },
    {
      "inputs": [
        {
          "internalType": "uint256",
          "name": "tokenId",
          "type": "uint256"
        }
      ],
      "name": "getApproved",
      "outputs": [
        {
          "internalType": "address",
          "name": "",
          "type": "address"
        }
      ],
      "stateMutability": "view",
      "type": "function"
    },
    {
      "inputs": [
        {
          "internalType": "address",
          "name": "owner",
          "type": "address"
        },
        {
          "internalType": "address",
          "name": "operator",
          "type": "address"
        }
      ],
      "name": "isApprovedForAll",
      "outputs": [
        {
          "internalType": "bool",
          "name": "",
          "type": "bool"
        }
      ],
      "stateMutability": "view",
      "type": "function"
    },
    {
      "inputs": [],
      "name": "name",
      "outputs": [
        {
          "internalType": "string",
          "name": "",
          "type": "string"
        }
      ],
      "stateMutability": "view",
      "type": "function"
    },
    {
      "inputs": [],
      "name": "owner",
      "outputs": [
        {
          "internalType": "address",
          "name": "",
          "type": "address"
        }
      ],
      "stateMutability": "view",
      "type": "function"
    },
    {
      "inputs": [
        {
          "internalType": "uint256",
          "name": "tokenId",
          "type": "uint256"
        }
      ],
      "name": "ownerOf",
      "outputs": [
        {
          "internalType": "address",
          "name": "",
          "type": "address"
        }
      ],
      "stateMutability": "view",
      "type": "function"
    },
    {
      "inputs": [],
      "name": "renounceOwnership",
      "outputs": [],
      "stateMutability": "nonpayable",
      "type": "function"
    },
    {
      "inputs": [
        {
          "internalType": "address",
          "name": "from",
          "type": "address"
        },
        {
          "internalType": "address",
          "name": "to",
          "type": "address"
        },
        {
          "internalType": "uint256",
          "name": "tokenId",
          "type": "uint256"
        }
      ],
      "name": "safeTransferFrom",
      "outputs": [],
      "stateMutability": "nonpayable",
      "type": "function"
    },
    {
      "inputs": [
        {
          "internalType": "address",
          "name": "from",
          "type": "address"
        },
        {
          "internalType": "address",
          "name": "to",
          "type": "address"
        },
        {
          "internalType": "uint256",
          "name": "tokenId",
          "type": "uint256"
        },
        {
          "internalType": "bytes",
          "name": "_data",
          "type": "bytes"
        }
      ],
      "name": "safeTransferFrom",
      "outputs": [],
      "stateMutability": "nonpayable",
      "type": "function"
    },
    {
      "inputs": [
        {
          "internalType": "address",
          "name": "operator",
          "type": "address"
        },
        {
          "internalType": "bool",
          "name": "approved",
          "type": "bool"
        }
      ],
      "name": "setApprovalForAll",
      "outputs": [],
      "stateMutability": "nonpayable",
      "type": "function"
    },
    {
      "inputs": [
        {
          "internalType": "bytes4",
          "name": "interfaceId",
          "type": "bytes4"
        }
      ],
      "name": "supportsInterface",
      "outputs": [
        {
          "internalType": "bool",
          "name": "",
          "type": "bool"
        }
      ],
      "stateMutability": "view",
      "type": "function"
    },
    {
      "inputs": [],
      "name": "symbol",
      "outputs": [
        {
          "internalType": "string",
          "name": "",
          "type": "string"
        }
      ],
      "stateMutability": "view",
      "type": "function"
    },
    {
      "inputs": [
        {
          "internalType": "uint256",
          "name": "tokenId",
          "type": "uint256"
        }
      ],
      "name": "tokenURI",
      "outputs": [
        {
          "internalType": "string",
          "name": "",
          "type": "string"
        }
      ],
      "stateMutability": "view",
      "type": "function"
    },
    {
      "inputs": [
        {
          "internalType": "address",
          "name": "from",
          "type": "address"
        },
        {
          "internalType": "address",
          "name": "to",
          "type": "address"
        },
        {
          "internalType": "uint256",
          "name": "tokenId",
          "type": "uint256"
        }
      ],
      "name": "transferFrom",
      "outputs": [],
      "stateMutability": "nonpayable",
      "type": "function"
    },
    {
      "inputs": [
        {
          "internalType": "address",
          "name": "newOwner",
          "type": "address"
        }
      ],
      "name": "transferOwnership",
      "outputs": [],
      "stateMutability": "nonpayable",
      "type": "function"
    }
  ],
  "bytecode": "0x60806040523480156200001157600080fd5b506040518060400160405280600581526020017f4d794e46540000000000000000000000000000000000000000000000000000008152506040518060400160405280600381526020017f4e46540000000000000000000000000000000000000000000000000000000000815250816000908051906020019062000096929190620001a6565b508060019080519060200190620000af929190620001a6565b505050620000d2620000c6620000d860201b60201c565b620000e060201b60201c565b620002bb565b600033905090565b6000600760009054906101000a900473ffffffffffffffffffffffffffffffffffffffff16905081600760006101000a81548173ffffffffffffffffffffffffffffffffffffffff021916908373ffffffffffffffffffffffffffffffffffffffff1602179055508173ffffffffffffffffffffffffffffffffffffffff168173ffffffffffffffffffffffffffffffffffffffff167f8be0079c531659141344cd1fd0a4f28419497f9722a3daafe3b4186f6b6457e060405160405180910390a35050565b828054620001b49062000256565b90600052602060002090601f016020900481019282620001d8576000855562000224565b82601f10620001f357805160ff191683800117855562000224565b8280016001018555821562000224579182015b828111156200022357825182559160200191906001019062000206565b5b50905062000233919062000237565b5090565b5b808211156200025257600081600090555060010162000238565b5090565b600060028204905060018216806200026f57607f821691505b602082108114156200028657620002856200028c565b5b50919050565b7f4e487b7100000000000000000000000000000000000000000000000000000000600052602260045260246000fd5b612f7680620002cb6000396000f3fe608060405234801561001057600080fd5b506004361061010b5760003560e01c8063715018a6116100a2578063b88d4fde11610071578063b88d4fde146102a4578063c87b56dd146102c0578063cf378343146102f0578063e985e9c514610320578063f2fde38b146103505761010b565b8063715018a6146102425780638da5cb5b1461024c57806395d89b411461026a578063a22cb465146102885761010b565b806323b872dd116100de57806323b872dd146101aa57806342842e0e146101c65780636352211e146101e257806370a08231146102125761010b565b806301ffc9a71461011057806306fdde0314610140578063081812fc1461015e578063095ea7b31461018e575b600080fd5b61012a60048036038101906101259190611ed6565b61036c565b604051610137919061232e565b60405180910390f35b61014861044e565b6040516101559190612349565b60405180910390f35b61017860048036038101906101739190611f30565b6104e0565b60405161018591906122c7565b60405180910390f35b6101a860048036038101906101a39190611e96565b610565565b005b6101c460048036038101906101bf9190611d24565b61067d565b005b6101e060048036038101906101db9190611d24565b6106dd565b005b6101fc60048036038101906101f79190611f30565b6106fd565b60405161020991906122c7565b60405180910390f35b61022c60048036038101906102279190611cb7565b6107af565b60405161023991906125ab565b60405180910390f35b61024a610867565b005b6102546108ef565b60405161026191906122c7565b60405180910390f35b610272610919565b60405161027f9190612349565b60405180910390f35b6102a2600480360381019061029d9190611dfa565b6109ab565b005b6102be60048036038101906102b99190611d77565b610b2c565b005b6102da60048036038101906102d59190611f30565b610b8e565b6040516102e79190612349565b60405180910390f35b61030a60048036038101906103059190611e3a565b610ce0565b60405161031791906125ab565b60405180910390f35b61033a60048036038101906103359190611ce4565b610d18565b604051610347919061232e565b60405180910390f35b61036a60048036038101906103659190611cb7565b610dac565b005b60007f80ac58cd000000000000000000000000000000000000000000000000000000007bffffffffffffffffffffffffffffffffffffffffffffffffffffffff1916827bffffffffffffffffffffffffffffffffffffffffffffffffffffffff1916148061043757507f5b5e139f000000000000000000000000000000000000000000000000000000007bffffffffffffffffffffffffffffffffffffffffffffffffffffffff1916827bffffffffffffffffffffffffffffffffffffffffffffffffffffffff1916145b80610447575061044682610ea4565b5b9050919050565b60606000805461045d90612801565b80601f016020809104026020016040519081016040528092919081815260200182805461048990612801565b80156104d65780601f106104ab576101008083540402835291602001916104d6565b820191906000526020600020905b8154815290600101906020018083116104b957829003601f168201915b5050505050905090565b60006104eb82610f0e565b61052a576040517f08c379a0000000000000000000000000000000000000000000000000000000008152600401610521906124eb565b60405180910390fd5b6004600083815260200190815260200160002060009054906101000a900473ffffffffffffffffffffffffffffffffffffffff169050919050565b6000610570826106fd565b90508073ffffffffffffffffffffffffffffffffffffffff168373ffffffffffffffffffffffffffffffffffffffff1614156105e1576040517f08c379a00000000000000000000000000000000000000000000000000000000081526004016105d89061256b565b60405180910390fd5b8073ffffffffffffffffffffffffffffffffffffffff16610600610f7a565b73ffffffffffffffffffffffffffffffffffffffff16148061062f575061062e81610629610f7a565b610d18565b5b61066e576040517f08c379a00000000000000000000000000000000000000000000000000000000081526004016106659061242b565b60405180910390fd5b6106788383610f82565b505050565b61068e610688610f7a565b8261103b565b6106cd576040517f08c379a00000000000000000000000000000000000000000000000000000000081526004016106c49061258b565b60405180910390fd5b6106d8838383611119565b505050565b6106f883838360405180602001604052806000815250610b2c565b505050565b6000806002600084815260200190815260200160002060009054906101000a900473ffffffffffffffffffffffffffffffffffffffff169050600073ffffffffffffffffffffffffffffffffffffffff168173ffffffffffffffffffffffffffffffffffffffff1614156107a6576040517f08c379a000000000000000000000000000000000000000000000000000000000815260040161079d9061246b565b60405180910390fd5b80915050919050565b60008073ffffffffffffffffffffffffffffffffffffffff168273ffffffffffffffffffffffffffffffffffffffff161415610820576040517f08c379a00000000000000000000000000000000000000000000000000000000081526004016108179061244b565b60405180910390fd5b600360008373ffffffffffffffffffffffffffffffffffffffff1673ffffffffffffffffffffffffffffffffffffffff168152602001908152602001600020549050919050565b61086f610f7a565b73ffffffffffffffffffffffffffffffffffffffff1661088d6108ef565b73ffffffffffffffffffffffffffffffffffffffff16146108e3576040517f08c379a00000000000000000000000000000000000000000000000000000000081526004016108da9061250b565b60405180910390fd5b6108ed6000611375565b565b6000600760009054906101000a900473ffffffffffffffffffffffffffffffffffffffff16905090565b60606001805461092890612801565b80601f016020809104026020016040519081016040528092919081815260200182805461095490612801565b80156109a15780601f10610976576101008083540402835291602001916109a1565b820191906000526020600020905b81548152906001019060200180831161098457829003601f168201915b5050505050905090565b6109b3610f7a565b73ffffffffffffffffffffffffffffffffffffffff168273ffffffffffffffffffffffffffffffffffffffff161415610a21576040517f08c379a0000000000000000000000000000000000000000000000000000000008152600401610a18906123eb565b60405180910390fd5b8060056000610a2e610f7a565b73ffffffffffffffffffffffffffffffffffffffff1673ffffffffffffffffffffffffffffffffffffffff16815260200190815260200160002060008473ffffffffffffffffffffffffffffffffffffffff1673ffffffffffffffffffffffffffffffffffffffff16815260200190815260200160002060006101000a81548160ff0219169083151502179055508173ffffffffffffffffffffffffffffffffffffffff16610adb610f7a565b73ffffffffffffffffffffffffffffffffffffffff167f17307eab39ab6107e8899845ad3d59bd9653f200f220920489ca2b5937696c3183604051610b20919061232e565b60405180910390a35050565b610b3d610b37610f7a565b8361103b565b610b7c576040517f08c379a0000000000000000000000000000000000000000000000000000000008152600401610b739061258b565b60405180910390fd5b610b888484848461143b565b50505050565b6060610b9982610f0e565b610bd8576040517f08c379a0000000000000000000000000000000000000000000000000000000008152600401610bcf906124cb565b60405180910390fd5b6000600660008481526020019081526020016000208054610bf890612801565b80601f0160208091040260200160405190810160405280929190818152602001828054610c2490612801565b8015610c715780601f10610c4657610100808354040283529160200191610c71565b820191906000526020600020905b815481529060010190602001808311610c5457829003601f168201915b505050505090506000610c82611497565b9050600081511415610c98578192505050610cdb565b600082511115610ccd578082604051602001610cb59291906122a3565b60405160208183030381529060405292505050610cdb565b610cd6846114ae565b925050505b919050565b6000610cec6008611555565b6000610cf8600861156b565b9050610d048482611579565b610d0e8184611747565b8091505092915050565b6000600560008473ffffffffffffffffffffffffffffffffffffffff1673ffffffffffffffffffffffffffffffffffffffff16815260200190815260200160002060008373ffffffffffffffffffffffffffffffffffffffff1673ffffffffffffffffffffffffffffffffffffffff16815260200190815260200160002060009054906101000a900460ff16905092915050565b610db4610f7a565b73ffffffffffffffffffffffffffffffffffffffff16610dd26108ef565b73ffffffffffffffffffffffffffffffffffffffff1614610e28576040517f08c379a0000000000000000000000000000000000000000000000000000000008152600401610e1f9061250b565b60405180910390fd5b600073ffffffffffffffffffffffffffffffffffffffff168173ffffffffffffffffffffffffffffffffffffffff161415610e98576040517f08c379a0000000000000000000000000000000000000000000000000000000008152600401610e8f9061238b565b60405180910390fd5b610ea181611375565b50565b60007f01ffc9a7000000000000000000000000000000000000000000000000000000007bffffffffffffffffffffffffffffffffffffffffffffffffffffffff1916827bffffffffffffffffffffffffffffffffffffffffffffffffffffffff1916149050919050565b60008073ffffffffffffffffffffffffffffffffffffffff166002600084815260200190815260200160002060009054906101000a900473ffffffffffffffffffffffffffffffffffffffff1673ffffffffffffffffffffffffffffffffffffffff1614159050919050565b600033905090565b816004600083815260200190815260200160002060006101000a81548173ffffffffffffffffffffffffffffffffffffffff021916908373ffffffffffffffffffffffffffffffffffffffff160217905550808273ffffffffffffffffffffffffffffffffffffffff16610ff5836106fd565b73ffffffffffffffffffffffffffffffffffffffff167f8c5be1e5ebec7d5bd14f71427d1e84f3dd0314c0f7b2291e5b200ac8c7c3b92560405160405180910390a45050565b600061104682610f0e565b611085576040517f08c379a000000000000000000000000000000000000000000000000000000000815260040161107c9061240b565b60405180910390fd5b6000611090836106fd565b90508073ffffffffffffffffffffffffffffffffffffffff168473ffffffffffffffffffffffffffffffffffffffff1614806110ff57508373ffffffffffffffffffffffffffffffffffffffff166110e7846104e0565b73ffffffffffffffffffffffffffffffffffffffff16145b80611110575061110f8185610d18565b5b91505092915050565b8273ffffffffffffffffffffffffffffffffffffffff16611139826106fd565b73ffffffffffffffffffffffffffffffffffffffff161461118f576040517f08c379a00000000000000000000000000000000000000000000000000000000081526004016111869061252b565b60405180910390fd5b600073ffffffffffffffffffffffffffffffffffffffff168273ffffffffffffffffffffffffffffffffffffffff1614156111ff576040517f08c379a00000000000000000000000000000000000000000000000000000000081526004016111f6906123cb565b60405180910390fd5b61120a8383836117bb565b611215600082610f82565b6001600360008573ffffffffffffffffffffffffffffffffffffffff1673ffffffffffffffffffffffffffffffffffffffff16815260200190815260200160002060008282546112659190612717565b925050819055506001600360008473ffffffffffffffffffffffffffffffffffffffff1673ffffffffffffffffffffffffffffffffffffffff16815260200190815260200160002060008282546112bc9190612690565b92505081905550816002600083815260200190815260200160002060006101000a81548173ffffffffffffffffffffffffffffffffffffffff021916908373ffffffffffffffffffffffffffffffffffffffff160217905550808273ffffffffffffffffffffffffffffffffffffffff168473ffffffffffffffffffffffffffffffffffffffff167fddf252ad1be2c89b69c2b068fc378daa952ba7f163c4a11628f55a4df523b3ef60405160405180910390a4505050565b6000600760009054906101000a900473ffffffffffffffffffffffffffffffffffffffff16905081600760006101000a81548173ffffffffffffffffffffffffffffffffffffffff021916908373ffffffffffffffffffffffffffffffffffffffff1602179055508173ffffffffffffffffffffffffffffffffffffffff168173ffffffffffffffffffffffffffffffffffffffff167f8be0079c531659141344cd1fd0a4f28419497f9722a3daafe3b4186f6b6457e060405160405180910390a35050565b611446848484611119565b611452848484846117c0565b611491576040517f08c379a00000000000000000000000000000000000000000000000000000000081526004016114889061236b565b60405180910390fd5b50505050565b606060405180602001604052806000815250905090565b60606114b982610f0e565b6114f8576040517f08c379a00000000000000000000000000000000000000000000000000000000081526004016114ef9061254b565b60405180910390fd5b6000611502611497565b90506000815111611522576040518060200160405280600081525061154d565b8061152c84611957565b60405160200161153d9291906122a3565b6040516020818303038152906040525b915050919050565b6001816000016000828254019250508190555050565b600081600001549050919050565b600073ffffffffffffffffffffffffffffffffffffffff168273ffffffffffffffffffffffffffffffffffffffff1614156115e9576040517f08c379a00000000000000000000000000000000000000000000000000000000081526004016115e0906124ab565b60405180910390fd5b6115f281610f0e565b15611632576040517f08c379a0000000000000000000000000000000000000000000000000000000008152600401611629906123ab565b60405180910390fd5b61163e600083836117bb565b6001600360008473ffffffffffffffffffffffffffffffffffffffff1673ffffffffffffffffffffffffffffffffffffffff168152602001908152602001600020600082825461168e9190612690565b92505081905550816002600083815260200190815260200160002060006101000a81548173ffffffffffffffffffffffffffffffffffffffff021916908373ffffffffffffffffffffffffffffffffffffffff160217905550808273ffffffffffffffffffffffffffffffffffffffff16600073ffffffffffffffffffffffffffffffffffffffff167fddf252ad1be2c89b69c2b068fc378daa952ba7f163c4a11628f55a4df523b3ef60405160405180910390a45050565b61175082610f0e565b61178f576040517f08c379a00000000000000000000000000000000000000000000000000000000081526004016117869061248b565b60405180910390fd5b806006600084815260200190815260200160002090805190602001906117b6929190611acb565b505050565b505050565b60006117e18473ffffffffffffffffffffffffffffffffffffffff16611ab8565b1561194a578373ffffffffffffffffffffffffffffffffffffffff1663150b7a0261180a610f7a565b8786866040518563ffffffff1660e01b815260040161182c94939291906122e2565b602060405180830381600087803b15801561184657600080fd5b505af192505050801561187757506040513d601f19601f820116820180604052508101906118749190611f03565b60015b6118fa573d80600081146118a7576040519150601f19603f3d011682016040523d82523d6000602084013e6118ac565b606091505b506000815114156118f2576040517f08c379a00000000000000000000000000000000000000000000000000000000081526004016118e99061236b565b60405180910390fd5b805181602001fd5b63150b7a0260e01b7bffffffffffffffffffffffffffffffffffffffffffffffffffffffff1916817bffffffffffffffffffffffffffffffffffffffffffffffffffffffff19161491505061194f565b600190505b949350505050565b6060600082141561199f576040518060400160405280600181526020017f30000000000000000000000000000000000000000000000000000000000000008152509050611ab3565b600082905060005b600082146119d15780806119ba90612864565b915050600a826119ca91906126e6565b91506119a7565b60008167ffffffffffffffff8111156119ed576119ec61299a565b5b6040519080825280601f01601f191660200182016040528015611a1f5781602001600182028036833780820191505090505b5090505b60008514611aac57600182611a389190612717565b9150600a85611a4791906128ad565b6030611a539190612690565b60f81b818381518110611a6957611a6861296b565b5b60200101907effffffffffffffffffffffffffffffffffffffffffffffffffffffffffffff1916908160001a905350600a85611aa591906126e6565b9450611a23565b8093505050505b919050565b600080823b905060008111915050919050565b828054611ad790612801565b90600052602060002090601f016020900481019282611af95760008555611b40565b82601f10611b1257805160ff1916838001178555611b40565b82800160010185558215611b40579182015b82811115611b3f578251825591602001919060010190611b24565b5b509050611b4d9190611b51565b5090565b5b80821115611b6a576000816000905550600101611b52565b5090565b6000611b81611b7c846125eb565b6125c6565b905082815260208101848484011115611b9d57611b9c6129ce565b5b611ba88482856127bf565b509392505050565b6000611bc3611bbe8461261c565b6125c6565b905082815260208101848484011115611bdf57611bde6129ce565b5b611bea8482856127bf565b509392505050565b600081359050611c0181612ee4565b92915050565b600081359050611c1681612efb565b92915050565b600081359050611c2b81612f12565b92915050565b600081519050611c4081612f12565b92915050565b600082601f830112611c5b57611c5a6129c9565b5b8135611c6b848260208601611b6e565b91505092915050565b600082601f830112611c8957611c886129c9565b5b8135611c99848260208601611bb0565b91505092915050565b600081359050611cb181612f29565b92915050565b600060208284031215611ccd57611ccc6129d8565b5b6000611cdb84828501611bf2565b91505092915050565b60008060408385031215611cfb57611cfa6129d8565b5b6000611d0985828601611bf2565b9250506020611d1a85828601611bf2565b9150509250929050565b600080600060608486031215611d3d57611d3c6129d8565b5b6000611d4b86828701611bf2565b9350506020611d5c86828701611bf2565b9250506040611d6d86828701611ca2565b9150509250925092565b60008060008060808587031215611d9157611d906129d8565b5b6000611d9f87828801611bf2565b9450506020611db087828801611bf2565b9350506040611dc187828801611ca2565b925050606085013567ffffffffffffffff811115611de257611de16129d3565b5b611dee87828801611c46565b91505092959194509250565b60008060408385031215611e1157611e106129d8565b5b6000611e1f85828601611bf2565b9250506020611e3085828601611c07565b9150509250929050565b60008060408385031215611e5157611e506129d8565b5b6000611e5f85828601611bf2565b925050602083013567ffffffffffffffff811115611e8057611e7f6129d3565b5b611e8c85828601611c74565b9150509250929050565b60008060408385031215611ead57611eac6129d8565b5b6000611ebb85828601611bf2565b9250506020611ecc85828601611ca2565b9150509250929050565b600060208284031215611eec57611eeb6129d8565b5b6000611efa84828501611c1c565b91505092915050565b600060208284031215611f1957611f186129d8565b5b6000611f2784828501611c31565b91505092915050565b600060208284031215611f4657611f456129d8565b5b6000611f5484828501611ca2565b91505092915050565b611f668161274b565b82525050565b611f758161275d565b82525050565b6000611f868261264d565b611f908185612663565b9350611fa08185602086016127ce565b611fa9816129dd565b840191505092915050565b6000611fbf82612658565b611fc98185612674565b9350611fd98185602086016127ce565b611fe2816129dd565b840191505092915050565b6000611ff882612658565b6120028185612685565b93506120128185602086016127ce565b80840191505092915050565b600061202b603283612674565b9150612036826129ee565b604082019050919050565b600061204e602683612674565b915061205982612a3d565b604082019050919050565b6000612071601c83612674565b915061207c82612a8c565b602082019050919050565b6000612094602483612674565b915061209f82612ab5565b604082019050919050565b60006120b7601983612674565b91506120c282612b04565b602082019050919050565b60006120da602c83612674565b91506120e582612b2d565b604082019050919050565b60006120fd603883612674565b915061210882612b7c565b604082019050919050565b6000612120602a83612674565b915061212b82612bcb565b604082019050919050565b6000612143602983612674565b915061214e82612c1a565b604082019050919050565b6000612166602e83612674565b915061217182612c69565b604082019050919050565b6000612189602083612674565b915061219482612cb8565b602082019050919050565b60006121ac603183612674565b91506121b782612ce1565b604082019050919050565b60006121cf602c83612674565b91506121da82612d30565b604082019050919050565b60006121f2602083612674565b91506121fd82612d7f565b602082019050919050565b6000612215602983612674565b915061222082612da8565b604082019050919050565b6000612238602f83612674565b915061224382612df7565b604082019050919050565b600061225b602183612674565b915061226682612e46565b604082019050919050565b600061227e603183612674565b915061228982612e95565b604082019050919050565b61229d816127b5565b82525050565b60006122af8285611fed565b91506122bb8284611fed565b91508190509392505050565b60006020820190506122dc6000830184611f5d565b92915050565b60006080820190506122f76000830187611f5d565b6123046020830186611f5d565b6123116040830185612294565b81810360608301526123238184611f7b565b905095945050505050565b60006020820190506123436000830184611f6c565b92915050565b600060208201905081810360008301526123638184611fb4565b905092915050565b600060208201905081810360008301526123848161201e565b9050919050565b600060208201905081810360008301526123a481612041565b9050919050565b600060208201905081810360008301526123c481612064565b9050919050565b600060208201905081810360008301526123e481612087565b9050919050565b60006020820190508181036000830152612404816120aa565b9050919050565b60006020820190508181036000830152612424816120cd565b9050919050565b60006020820190508181036000830152612444816120f0565b9050919050565b6000602082019050818103600083015261246481612113565b9050919050565b6000602082019050818103600083015261248481612136565b9050919050565b600060208201905081810360008301526124a481612159565b9050919050565b600060208201905081810360008301526124c48161217c565b9050919050565b600060208201905081810360008301526124e48161219f565b9050919050565b60006020820190508181036000830152612504816121c2565b9050919050565b60006020820190508181036000830152612524816121e5565b9050919050565b6000602082019050818103600083015261254481612208565b9050919050565b600060208201905081810360008301526125648161222b565b9050919050565b600060208201905081810360008301526125848161224e565b9050919050565b600060208201905081810360008301526125a481612271565b9050919050565b60006020820190506125c06000830184612294565b92915050565b60006125d06125e1565b90506125dc8282612833565b919050565b6000604051905090565b600067ffffffffffffffff8211156126065761260561299a565b5b61260f826129dd565b9050602081019050919050565b600067ffffffffffffffff8211156126375761263661299a565b5b612640826129dd565b9050602081019050919050565b600081519050919050565b600081519050919050565b600082825260208201905092915050565b600082825260208201905092915050565b600081905092915050565b600061269b826127b5565b91506126a6836127b5565b9250827fffffffffffffffffffffffffffffffffffffffffffffffffffffffffffffffff038211156126db576126da6128de565b5b828201905092915050565b60006126f1826127b5565b91506126fc836127b5565b92508261270c5761270b61290d565b5b828204905092915050565b6000612722826127b5565b915061272d836127b5565b9250828210156127405761273f6128de565b5b828203905092915050565b600061275682612795565b9050919050565b60008115159050919050565b60007fffffffff0000000000000000000000000000000000000000000000000000000082169050919050565b600073ffffffffffffffffffffffffffffffffffffffff82169050919050565b6000819050919050565b82818337600083830152505050565b60005b838110156127ec5780820151818401526020810190506127d1565b838111156127fb576000848401525b50505050565b6000600282049050600182168061281957607f821691505b6020821081141561282d5761282c61293c565b5b50919050565b61283c826129dd565b810181811067ffffffffffffffff8211171561285b5761285a61299a565b5b80604052505050565b600061286f826127b5565b91507fffffffffffffffffffffffffffffffffffffffffffffffffffffffffffffffff8214156128a2576128a16128de565b5b600182019050919050565b60006128b8826127b5565b91506128c3836127b5565b9250826128d3576128d261290d565b5b828206905092915050565b7f4e487b7100000000000000000000000000000000000000000000000000000000600052601160045260246000fd5b7f4e487b7100000000000000000000000000000000000000000000000000000000600052601260045260246000fd5b7f4e487b7100000000000000000000000000000000000000000000000000000000600052602260045260246000fd5b7f4e487b7100000000000000000000000000000000000000000000000000000000600052603260045260246000fd5b7f4e487b7100000000000000000000000000000000000000000000000000000000600052604160045260246000fd5b600080fd5b600080fd5b600080fd5b600080fd5b6000601f19601f8301169050919050565b7f4552433732313a207472616e7366657220746f206e6f6e20455243373231526560008201527f63656976657220696d706c656d656e7465720000000000000000000000000000602082015250565b7f4f776e61626c653a206e6577206f776e657220697320746865207a65726f206160008201527f6464726573730000000000000000000000000000000000000000000000000000602082015250565b7f4552433732313a20746f6b656e20616c7265616479206d696e74656400000000600082015250565b7f4552433732313a207472616e7366657220746f20746865207a65726f2061646460008201527f7265737300000000000000000000000000000000000000000000000000000000602082015250565b7f4552433732313a20617070726f766520746f2063616c6c657200000000000000600082015250565b7f4552433732313a206f70657261746f7220717565727920666f72206e6f6e657860008201527f697374656e7420746f6b656e0000000000000000000000000000000000000000602082015250565b7f4552433732313a20617070726f76652063616c6c6572206973206e6f74206f7760008201527f6e6572206e6f7220617070726f76656420666f7220616c6c0000000000000000602082015250565b7f4552433732313a2062616c616e636520717565727920666f7220746865207a6560008201527f726f206164647265737300000000000000000000000000000000000000000000602082015250565b7f4552433732313a206f776e657220717565727920666f72206e6f6e657869737460008201527f656e7420746f6b656e0000000000000000000000000000000000000000000000602082015250565b7f45524337323155524953746f726167653a2055524920736574206f66206e6f6e60008201527f6578697374656e7420746f6b656e000000000000000000000000000000000000602082015250565b7f4552433732313a206d696e7420746f20746865207a65726f2061646472657373600082015250565b7f45524337323155524953746f726167653a2055524920717565727920666f722060008201527f6e6f6e6578697374656e7420746f6b656e000000000000000000000000000000602082015250565b7f4552433732313a20617070726f76656420717565727920666f72206e6f6e657860008201527f697374656e7420746f6b656e0000000000000000000000000000000000000000602082015250565b7f4f776e61626c653a2063616c6c6572206973206e6f7420746865206f776e6572600082015250565b7f4552433732313a207472616e73666572206f6620746f6b656e2074686174206960008201527f73206e6f74206f776e0000000000000000000000000000000000000000000000602082015250565b7f4552433732314d657461646174613a2055524920717565727920666f72206e6f60008201527f6e6578697374656e7420746f6b656e0000000000000000000000000000000000602082015250565b7f4552433732313a20617070726f76616c20746f2063757272656e74206f776e6560008201527f7200000000000000000000000000000000000000000000000000000000000000602082015250565b7f4552433732313a207472616e736665722063616c6c6572206973206e6f74206f60008201527f776e6572206e6f7220617070726f766564000000000000000000000000000000602082015250565b612eed8161274b565b8114612ef857600080fd5b50565b612f048161275d565b8114612f0f57600080fd5b50565b612f1b81612769565b8114612f2657600080fd5b50565b612f32816127b5565b8114612f3d57600080fd5b5056fea2646970667358221220336dbffb53bda2264fe9611b9ea1b2bed952556919dbfb32a1ecf81d6ed7248164736f6c63430008060033",
  "linkReferences": {},
  "deployedLinkReferences": {}
}